S00C0000444134422E737265631D
S11300000C9434000C9446000C9446000C94460066
S11300100C9446000C9446000C9446000C94460044
S11300200C9446000C9446000C9446000C94460034
S11300300C9446000C9446000C9446000C94460024
S11300400C9446000C9446000C9446000C94460014
S11300500C9446000C9446000C9446000C94460004
S11300600C9446000C94460011241FBECFEFD8E038
S1130070DEBFCDBF21E0A0E0B1E001C01D92A230FF
S1130080B207E1F70E945E000C949C000C940000FF
S11300908FE084B917B815B88AE080938100089579
S11300A081E080937E0080E480937C00EAE7F0E0C6
S11300B080818768808310927B0008950E944800A5
S11300C00E945000EAE7F0E0C8E7D0E0A8E8B0E01A
S11300D079E063E056E04CE0808180648083808135
S11300E084FFFDCF8881998193709093010180935F
S11300F0000180910001909101019C01220F331FA6
S1130100880F991F880F991F880F991F820F931FBB
S113011011969C938E9375B9B19BFECFB19A65B934
S1130120B19BFECFB19A55B9B19BFECFB19A45B9F7
S10F0130B19BFECFB19AD0CFF894FFCF62
S9030000FC
