S00E00005061727432432E737265630A
S11300000C9434000C943E000C943E000C943E007E
S11300100C943E000C943E000C943E000C943E0064
S11300200C943E000C943E000C943E000C943E0054
S11300300C943E000C943E000C943E000C943E0044
S11300400C943E000C943E000C943E000C943E0034
S11300500C943E000C943E000C943E000C943E0024
S11300600C943E000C943E0011241FBECFEFD8E048
S1130070DEBFCDBF0E9440000C9454000C940000DD
S1130080229A2A9A87B117B888B188B92A982FEF8B
S113009088E09DE3215080409040E1F700C00000DB
S10F00A02A9A80E090E00895F894FFCFC5
S9030000FC
