S00C0000444134412E737265631E
S11300000C9434000C9446000C9446000C94460066
S11300100C9448000C9446000C9446000C94460042
S11300200C9446000C9446000C9446000C94460034
S11300300C9446000C9446000C9446000C94460024
S11300400C9446000C9446000C9446000C94460014
S11300500C9446000C9446000C9446000C94460004
S11300600C9446000C94460011241FBECFEFD8E038
S1130070DEBFCDBF21E0A0E0B1E001C01D92A330FE
S1130080B207E1F70E94CA000C94CF000C94000060
S11300901F920F920FB60F9211242F933F938F93B9
S11300A09F93EF93FF93319940C02FEF80E792E045
S11300B0215080409040E1F700C00000319BFECF0A
S11300C080910001882331F1299AEAE7F0E08081E8
S11300D080648083808184FFFDCF8091780090913B
S11300E07900937090930201809301018091010142
S11300F0909102019C01220F331F880F991F880FD2
S1130100991F880F991F820F931F909389008093E2
S1130110880005C010928900109288002998909157
S1130120000181E0892780930001FF91EF919F9165
S11301308F913F912F910F900FBE0F901F901895A4
S113014082E084B9259A17B815B8E0E8F0E0908108
S1130150926A9083E1E8F0E090819A6190832FE0C5
S113016037E23093870020938600419A8093680099
S113017080936C007894089581E080937E0080E4FD
S113018080937C00EAE7F0E08081876880831092A6
S11301907B0008950E94A0000E94BC00FFCFF89449
S10501A0FFCF8B
S9030000FC
